{
  "contractName": "Election",
  "abi": [
    {
      "inputs": [],
      "stateMutability": "nonpayable",
      "type": "constructor"
    },
    {
      "anonymous": false,
      "inputs": [
        {
          "indexed": true,
          "internalType": "uint256",
          "name": "id",
          "type": "uint256"
        },
        {
          "indexed": false,
          "internalType": "string",
          "name": "name",
          "type": "string"
        },
        {
          "indexed": false,
          "internalType": "string",
          "name": "party",
          "type": "string"
        }
      ],
      "name": "ContestantAdded",
      "type": "event"
    },
    {
      "anonymous": false,
      "inputs": [
        {
          "indexed": true,
          "internalType": "address",
          "name": "requester",
          "type": "address"
        },
        {
          "indexed": false,
          "internalType": "string",
          "name": "name",
          "type": "string"
        },
        {
          "indexed": false,
          "internalType": "string",
          "name": "party",
          "type": "string"
        }
      ],
      "name": "ContestantRequested",
      "type": "event"
    },
    {
      "anonymous": false,
      "inputs": [
        {
          "indexed": false,
          "internalType": "enum Election.PHASE",
          "name": "newPhase",
          "type": "uint8"
        }
      ],
      "name": "PhaseChanged",
      "type": "event"
    },
    {
      "anonymous": false,
      "inputs": [
        {
          "indexed": true,
          "internalType": "address",
          "name": "voter",
          "type": "address"
        },
        {
          "indexed": true,
          "internalType": "uint256",
          "name": "contestantId",
          "type": "uint256"
        }
      ],
      "name": "VoteCasted",
      "type": "event"
    },
    {
      "anonymous": false,
      "inputs": [
        {
          "indexed": true,
          "internalType": "address",
          "name": "voter",
          "type": "address"
        }
      ],
      "name": "VoterRegistered",
      "type": "event"
    },
    {
      "anonymous": false,
      "inputs": [
        {
          "indexed": true,
          "internalType": "address",
          "name": "requester",
          "type": "address"
        },
        {
          "indexed": false,
          "internalType": "string",
          "name": "name",
          "type": "string"
        },
        {
          "indexed": false,
          "internalType": "string",
          "name": "voterId",
          "type": "string"
        }
      ],
      "name": "VoterRequested",
      "type": "event"
    },
    {
      "inputs": [],
      "name": "admin",
      "outputs": [
        {
          "internalType": "address",
          "name": "",
          "type": "address"
        }
      ],
      "stateMutability": "view",
      "type": "function",
      "constant": true
    },
    {
      "inputs": [
        {
          "internalType": "uint256",
          "name": "",
          "type": "uint256"
        }
      ],
      "name": "contestants",
      "outputs": [
        {
          "internalType": "uint256",
          "name": "id",
          "type": "uint256"
        },
        {
          "internalType": "string",
          "name": "name",
          "type": "string"
        },
        {
          "internalType": "uint256",
          "name": "voteCount",
          "type": "uint256"
        },
        {
          "internalType": "string",
          "name": "party",
          "type": "string"
        },
        {
          "internalType": "uint256",
          "name": "age",
          "type": "uint256"
        },
        {
          "internalType": "string",
          "name": "qualification",
          "type": "string"
        }
      ],
      "stateMutability": "view",
      "type": "function",
      "constant": true
    },
    {
      "inputs": [],
      "name": "contestantsCount",
      "outputs": [
        {
          "internalType": "uint256",
          "name": "",
          "type": "uint256"
        }
      ],
      "stateMutability": "view",
      "type": "function",
      "constant": true
    },
    {
      "inputs": [
        {
          "internalType": "address",
          "name": "",
          "type": "address"
        }
      ],
      "name": "hasVoted",
      "outputs": [
        {
          "internalType": "bool",
          "name": "",
          "type": "bool"
        }
      ],
      "stateMutability": "view",
      "type": "function",
      "constant": true
    },
    {
      "inputs": [
        {
          "internalType": "address",
          "name": "",
          "type": "address"
        }
      ],
      "name": "pendingContestants",
      "outputs": [
        {
          "internalType": "string",
          "name": "name",
          "type": "string"
        },
        {
          "internalType": "string",
          "name": "party",
          "type": "string"
        },
        {
          "internalType": "uint256",
          "name": "age",
          "type": "uint256"
        },
        {
          "internalType": "string",
          "name": "qualification",
          "type": "string"
        },
        {
          "internalType": "bool",
          "name": "exists",
          "type": "bool"
        }
      ],
      "stateMutability": "view",
      "type": "function",
      "constant": true
    },
    {
      "inputs": [
        {
          "internalType": "address",
          "name": "",
          "type": "address"
        }
      ],
      "name": "pendingVoterRequests",
      "outputs": [
        {
          "internalType": "string",
          "name": "voterId",
          "type": "string"
        },
        {
          "internalType": "string",
          "name": "phoneNumber",
          "type": "string"
        },
        {
          "internalType": "string",
          "name": "name",
          "type": "string"
        },
        {
          "internalType": "string",
          "name": "aadhaarNumber",
          "type": "string"
        },
        {
          "internalType": "bool",
          "name": "exists",
          "type": "bool"
        }
      ],
      "stateMutability": "view",
      "type": "function",
      "constant": true
    },
    {
      "inputs": [
        {
          "internalType": "address",
          "name": "",
          "type": "address"
        }
      ],
      "name": "registeredVoters",
      "outputs": [
        {
          "internalType": "bool",
          "name": "",
          "type": "bool"
        }
      ],
      "stateMutability": "view",
      "type": "function",
      "constant": true
    },
    {
      "inputs": [],
      "name": "state",
      "outputs": [
        {
          "internalType": "enum Election.PHASE",
          "name": "",
          "type": "uint8"
        }
      ],
      "stateMutability": "view",
      "type": "function",
      "constant": true
    },
    {
      "inputs": [
        {
          "internalType": "address",
          "name": "",
          "type": "address"
        }
      ],
      "name": "votes",
      "outputs": [
        {
          "internalType": "uint256",
          "name": "",
          "type": "uint256"
        }
      ],
      "stateMutability": "view",
      "type": "function",
      "constant": true
    },
    {
      "inputs": [
        {
          "internalType": "enum Election.PHASE",
          "name": "newState",
          "type": "uint8"
        }
      ],
      "name": "changeState",
      "outputs": [],
      "stateMutability": "nonpayable",
      "type": "function"
    },
    {
      "inputs": [
        {
          "internalType": "string",
          "name": "_name",
          "type": "string"
        },
        {
          "internalType": "string",
          "name": "_party",
          "type": "string"
        },
        {
          "internalType": "uint256",
          "name": "_age",
          "type": "uint256"
        },
        {
          "internalType": "string",
          "name": "_qualification",
          "type": "string"
        }
      ],
      "name": "requestToContest",
      "outputs": [],
      "stateMutability": "nonpayable",
      "type": "function"
    },
    {
      "inputs": [
        {
          "internalType": "address",
          "name": "contestantAddress",
          "type": "address"
        }
      ],
      "name": "approveContestant",
      "outputs": [],
      "stateMutability": "nonpayable",
      "type": "function"
    },
    {
      "inputs": [
        {
          "internalType": "string",
          "name": "_voterId",
          "type": "string"
        },
        {
          "internalType": "string",
          "name": "_phoneNumber",
          "type": "string"
        },
        {
          "internalType": "string",
          "name": "_name",
          "type": "string"
        },
        {
          "internalType": "string",
          "name": "_aadhaarNumber",
          "type": "string"
        }
      ],
      "name": "requestVoterRegistration",
      "outputs": [],
      "stateMutability": "nonpayable",
      "type": "function"
    },
    {
      "inputs": [
        {
          "internalType": "address",
          "name": "voter",
          "type": "address"
        }
      ],
      "name": "approveVoterRegistration",
      "outputs": [],
      "stateMutability": "nonpayable",
      "type": "function"
    },
    {
      "inputs": [
        {
          "internalType": "uint256",
          "name": "_contestantId",
          "type": "uint256"
        }
      ],
      "name": "vote",
      "outputs": [],
      "stateMutability": "nonpayable",
      "type": "function"
    },
    {
      "inputs": [
        {
          "internalType": "uint256",
          "name": "_contestantId",
          "type": "uint256"
        }
      ],
      "name": "getVoteCount",
      "outputs": [
        {
          "internalType": "uint256",
          "name": "",
          "type": "uint256"
        }
      ],
      "stateMutability": "view",
      "type": "function",
      "constant": true
    },
    {
      "inputs": [],
      "name": "getWinner",
      "outputs": [
        {
          "internalType": "uint256",
          "name": "",
          "type": "uint256"
        },
        {
          "internalType": "string",
          "name": "",
          "type": "string"
        },
        {
          "internalType": "string",
          "name": "",
          "type": "string"
        },
        {
          "internalType": "uint256",
          "name": "",
          "type": "uint256"
        }
      ],
      "stateMutability": "view",
      "type": "function",
      "constant": true
    }
  ],
  "bytecode": "0x60806040523480156200001157600080fd5b50336000806101000a81548173ffffffffffffffffffffffffffffffffffffffff021916908373ffffffffffffffffffffffffffffffffffffffff1602179055506000600860006101000a81548160ff021916908360028111156200007b576200007a62000086565b5b0217905550620000b5565b7f4e487b7100000000000000000000000000000000000000000000000000000000600052602160045260246000fd5b612c1980620000c56000396000f3fe608060405234801561001057600080fd5b506004361061010b5760003560e01c8063b48386c3116100a2578063da72437911610071578063da724379146102cf578063dfd50f5214610303578063ec63d1c814610338578063f390ca9014610356578063f851a440146103725761010b565b8063b48386c314610249578063c19d93fb14610265578063c38c3ee114610283578063d8bff5a51461029f5761010b565b80635f9408fb116100de5780635f9408fb146101ac5780638e7ea5b2146101c8578063a9ff6df1146101e9578063b2c2f2e8146102195761010b565b80630121b93f1461011057806309eef43e1461012c578063268f11531461015c5780633367d92014610178575b600080fd5b61012a60048036038101906101259190611ee5565b610390565b005b61014660048036038101906101419190611f70565b610681565b6040516101539190611fb8565b60405180910390f35b61017660048036038101906101719190611ff8565b6106a1565b005b610192600480360381019061018d9190611f70565b610793565b6040516101a39594939291906120cd565b60405180910390f35b6101c660048036038101906101c1919061226a565b61096e565b005b6101d0610b41565b6040516101e09493929190612325565b60405180910390f35b61020360048036038101906101fe9190611f70565b610de6565b6040516102109190611fb8565b60405180910390f35b610233600480360381019061022e9190611ee5565b610e06565b6040516102409190612378565b60405180910390f35b610263600480360381019061025e9190612393565b610eef565b005b61026d611162565b60405161027a91906124e1565b60405180910390f35b61029d60048036038101906102989190611f70565b611175565b005b6102b960048036038101906102b49190611f70565b6116ee565b6040516102c69190612378565b60405180910390f35b6102e960048036038101906102e49190611f70565b611706565b6040516102fa9594939291906124fc565b60405180910390f35b61031d60048036038101906103189190611ee5565b611969565b60405161032f9695949392919061256b565b60405180910390f35b610340611b3d565b60405161034d9190612378565b60405180910390f35b610370600480360381019061036b9190611f70565b611b43565b005b61037a611d94565b60405161038791906125f0565b60405180910390f35b60018060028111156103a5576103a461246a565b5b600860009054906101000a900460ff1660028111156103c7576103c661246a565b5b14610407576040517f08c379a00000000000000000000000000000000000000000000000000000000081526004016103fe90612657565b60405180910390fd5b600360003373ffffffffffffffffffffffffffffffffffffffff1673ffffffffffffffffffffffffffffffffffffffff16815260200190815260200160002060009054906101000a900460ff16610493576040517f08c379a000000000000000000000000000000000000000000000000000000000815260040161048a906126c3565b60405180910390fd5b600460003373ffffffffffffffffffffffffffffffffffffffff1673ffffffffffffffffffffffffffffffffffffffff16815260200190815260200160002060009054906101000a900460ff1615610520576040517f08c379a00000000000000000000000000000000000000000000000000000000081526004016105179061272f565b60405180910390fd5b60008211801561053257506001548211155b610571576040517f08c379a00000000000000000000000000000000000000000000000000000000081526004016105689061279b565b60405180910390fd5b600260008381526020019081526020016000206002016000815480929190610598906127ea565b91905055506001600460003373ffffffffffffffffffffffffffffffffffffffff1673ffffffffffffffffffffffffffffffffffffffff16815260200190815260200160002060006101000a81548160ff02191690831515021790555081600560003373ffffffffffffffffffffffffffffffffffffffff1673ffffffffffffffffffffffffffffffffffffffff16815260200190815260200160002081905550813373ffffffffffffffffffffffffffffffffffffffff167fd0e6c39f2e086dc49f1524b47725526a56945cd1ff661f37976f1725a1e5698660405160405180910390a35050565b60046020528060005260406000206000915054906101000a900460ff1681565b60008054906101000a900473ffffffffffffffffffffffffffffffffffffffff1673ffffffffffffffffffffffffffffffffffffffff163373ffffffffffffffffffffffffffffffffffffffff161461072f576040517f08c379a0000000000000000000000000000000000000000000000000000000008152600401610726906128a4565b60405180910390fd5b80600860006101000a81548160ff021916908360028111156107545761075361246a565b5b02179055507fa6dcc92f45df25789d5639b7a0c97ba1edf3bb1c0b5dd3376fd96a0db87c46428160405161078891906124e1565b60405180910390a150565b60076020528060005260406000206000915090508060000180546107b6906128f3565b80601f01602080910402602001604051908101604052809291908181526020018280546107e2906128f3565b801561082f5780601f106108045761010080835404028352916020019161082f565b820191906000526020600020905b81548152906001019060200180831161081257829003601f168201915b505050505090806001018054610844906128f3565b80601f0160208091040260200160405190810160405280929190818152602001828054610870906128f3565b80156108bd5780601f10610892576101008083540402835291602001916108bd565b820191906000526020600020905b8154815290600101906020018083116108a057829003601f168201915b5050505050908060020154908060030180546108d8906128f3565b80601f0160208091040260200160405190810160405280929190818152602001828054610904906128f3565b80156109515780601f1061092657610100808354040283529160200191610951565b820191906000526020600020905b81548152906001019060200180831161093457829003601f168201915b5050505050908060040160009054906101000a900460ff16905085565b600760003373ffffffffffffffffffffffffffffffffffffffff1673ffffffffffffffffffffffffffffffffffffffff16815260200190815260200160002060040160009054906101000a900460ff16156109fe576040517f08c379a00000000000000000000000000000000000000000000000000000000081526004016109f590612970565b60405180910390fd5b6040518060a0016040528085815260200184815260200183815260200182815260200160011515815250600760003373ffffffffffffffffffffffffffffffffffffffff1673ffffffffffffffffffffffffffffffffffffffff1681526020019081526020016000206000820151816000019080519060200190610a83929190611db8565b506020820151816001019080519060200190610aa0929190611db8565b50604082015181600201556060820151816003019080519060200190610ac7929190611db8565b5060808201518160040160006101000a81548160ff0219169083151502179055509050503373ffffffffffffffffffffffffffffffffffffffff167f16ff1314ca210251d0479acd205819c339b4ce403fa0a7f549046bab3a5586498585604051610b33929190612990565b60405180910390a250505050565b600060608060006002806002811115610b5d57610b5c61246a565b5b600860009054906101000a900460ff166002811115610b7f57610b7e61246a565b5b14610bbf576040517f08c379a0000000000000000000000000000000000000000000000000000000008152600401610bb690612657565b60405180910390fd5b60008080600190505b6001548111610c1f578260026000838152602001908152602001600020600201541115610c0c57600260008281526020019081526020016000206002015492508091505b8080610c17906127ea565b915050610bc8565b5060008211610c63576040517f08c379a0000000000000000000000000000000000000000000000000000000008152600401610c5a90612a13565b60405180910390fd5b600260008281526020019081526020016000206000015460026000838152602001908152602001600020600101600260008481526020019081526020016000206003016002600085815260200190815260200160002060020154828054610cc9906128f3565b80601f0160208091040260200160405190810160405280929190818152602001828054610cf5906128f3565b8015610d425780601f10610d1757610100808354040283529160200191610d42565b820191906000526020600020905b815481529060010190602001808311610d2557829003601f168201915b50505050509250818054610d55906128f3565b80601f0160208091040260200160405190810160405280929190818152602001828054610d81906128f3565b8015610dce5780601f10610da357610100808354040283529160200191610dce565b820191906000526020600020905b815481529060010190602001808311610db157829003601f168201915b50505050509150965096509650965050505090919293565b60036020528060005260406000206000915054906101000a900460ff1681565b60006002806002811115610e1d57610e1c61246a565b5b600860009054906101000a900460ff166002811115610e3f57610e3e61246a565b5b14610e7f576040517f08c379a0000000000000000000000000000000000000000000000000000000008152600401610e7690612657565b60405180910390fd5b600083118015610e9157506001548311155b610ed0576040517f08c379a0000000000000000000000000000000000000000000000000000000008152600401610ec790612a7f565b60405180910390fd5b6002600084815260200190815260200160002060020154915050919050565b600360003373ffffffffffffffffffffffffffffffffffffffff1673ffffffffffffffffffffffffffffffffffffffff16815260200190815260200160002060009054906101000a900460ff1615610f7c576040517f08c379a0000000000000000000000000000000000000000000000000000000008152600401610f7390612aeb565b60405180910390fd5b600660003373ffffffffffffffffffffffffffffffffffffffff1673ffffffffffffffffffffffffffffffffffffffff16815260200190815260200160002060040160009054906101000a900460ff161561100c576040517f08c379a000000000000000000000000000000000000000000000000000000000815260040161100390612b57565b60405180910390fd5b6040518060a0016040528085815260200184815260200183815260200182815260200160011515815250600660003373ffffffffffffffffffffffffffffffffffffffff1673ffffffffffffffffffffffffffffffffffffffff1681526020019081526020016000206000820151816000019080519060200190611091929190611db8565b5060208201518160010190805190602001906110ae929190611db8565b5060408201518160020190805190602001906110cb929190611db8565b5060608201518160030190805190602001906110e8929190611db8565b5060808201518160040160006101000a81548160ff0219169083151502179055509050503373ffffffffffffffffffffffffffffffffffffffff167f3eb4036410c4a8b8255e3f140e0bea4f735a529e30dbc86f923e8f08e9a434138386604051611154929190612990565b60405180910390a250505050565b600860009054906101000a900460ff1681565b60008054906101000a900473ffffffffffffffffffffffffffffffffffffffff1673ffffffffffffffffffffffffffffffffffffffff163373ffffffffffffffffffffffffffffffffffffffff1614611203576040517f08c379a00000000000000000000000000000000000000000000000000000000081526004016111fa906128a4565b60405180910390fd5b60008060028111156112185761121761246a565b5b600860009054906101000a900460ff16600281111561123a5761123961246a565b5b1461127a576040517f08c379a000000000000000000000000000000000000000000000000000000000815260040161127190612657565b60405180910390fd5b600760008373ffffffffffffffffffffffffffffffffffffffff1673ffffffffffffffffffffffffffffffffffffffff16815260200190815260200160002060040160009054906101000a900460ff16611309576040517f08c379a000000000000000000000000000000000000000000000000000000000815260040161130090612bc3565b60405180910390fd5b6001600081548092919061131c906127ea565b91905055506000600760008473ffffffffffffffffffffffffffffffffffffffff1673ffffffffffffffffffffffffffffffffffffffff1681526020019081526020016000206040518060a001604052908160008201805461137d906128f3565b80601f01602080910402602001604051908101604052809291908181526020018280546113a9906128f3565b80156113f65780601f106113cb576101008083540402835291602001916113f6565b820191906000526020600020905b8154815290600101906020018083116113d957829003601f168201915b5050505050815260200160018201805461140f906128f3565b80601f016020809104026020016040519081016040528092919081815260200182805461143b906128f3565b80156114885780601f1061145d57610100808354040283529160200191611488565b820191906000526020600020905b81548152906001019060200180831161146b57829003601f168201915b50505050508152602001600282015481526020016003820180546114ab906128f3565b80601f01602080910402602001604051908101604052809291908181526020018280546114d7906128f3565b80156115245780601f106114f957610100808354040283529160200191611524565b820191906000526020600020905b81548152906001019060200180831161150757829003601f168201915b505050505081526020016004820160009054906101000a900460ff16151515158152505090506040518060c0016040528060015481526020018260000151815260200160008152602001826020015181526020018260400151815260200182606001518152506002600060015481526020019081526020016000206000820151816000015560208201518160010190805190602001906115c5929190611db8565b506040820151816002015560608201518160030190805190602001906115ec929190611db8565b506080820151816004015560a0820151816005019080519060200190611613929190611db8565b50905050600760008473ffffffffffffffffffffffffffffffffffffffff1673ffffffffffffffffffffffffffffffffffffffff168152602001908152602001600020600080820160006116679190611e3e565b6001820160006116779190611e3e565b600282016000905560038201600061168f9190611e3e565b6004820160006101000a81549060ff021916905550506001547f703dc9f36de50da19cf5332ac9696f6e56561820efe588be0e8ccfb5858eb2fb826000015183602001516040516116e1929190612990565b60405180910390a2505050565b60056020528060005260406000206000915090505481565b6006602052806000526040600020600091509050806000018054611729906128f3565b80601f0160208091040260200160405190810160405280929190818152602001828054611755906128f3565b80156117a25780601f10611777576101008083540402835291602001916117a2565b820191906000526020600020905b81548152906001019060200180831161178557829003601f168201915b5050505050908060010180546117b7906128f3565b80601f01602080910402602001604051908101604052809291908181526020018280546117e3906128f3565b80156118305780601f1061180557610100808354040283529160200191611830565b820191906000526020600020905b81548152906001019060200180831161181357829003601f168201915b505050505090806002018054611845906128f3565b80601f0160208091040260200160405190810160405280929190818152602001828054611871906128f3565b80156118be5780601f10611893576101008083540402835291602001916118be565b820191906000526020600020905b8154815290600101906020018083116118a157829003601f168201915b5050505050908060030180546118d3906128f3565b80601f01602080910402602001604051908101604052809291908181526020018280546118ff906128f3565b801561194c5780601f106119215761010080835404028352916020019161194c565b820191906000526020600020905b81548152906001019060200180831161192f57829003601f168201915b5050505050908060040160009054906101000a900460ff16905085565b6002602052806000526040600020600091509050806000015490806001018054611992906128f3565b80601f01602080910402602001604051908101604052809291908181526020018280546119be906128f3565b8015611a0b5780601f106119e057610100808354040283529160200191611a0b565b820191906000526020600020905b8154815290600101906020018083116119ee57829003601f168201915b505050505090806002015490806003018054611a26906128f3565b80601f0160208091040260200160405190810160405280929190818152602001828054611a52906128f3565b8015611a9f5780601f10611a7457610100808354040283529160200191611a9f565b820191906000526020600020905b815481529060010190602001808311611a8257829003601f168201915b505050505090806004015490806005018054611aba906128f3565b80601f0160208091040260200160405190810160405280929190818152602001828054611ae6906128f3565b8015611b335780601f10611b0857610100808354040283529160200191611b33565b820191906000526020600020905b815481529060010190602001808311611b1657829003601f168201915b5050505050905086565b60015481565b60008054906101000a900473ffffffffffffffffffffffffffffffffffffffff1673ffffffffffffffffffffffffffffffffffffffff163373ffffffffffffffffffffffffffffffffffffffff1614611bd1576040517f08c379a0000000000000000000000000000000000000000000000000000000008152600401611bc8906128a4565b60405180910390fd5b600660008273ffffffffffffffffffffffffffffffffffffffff1673ffffffffffffffffffffffffffffffffffffffff16815260200190815260200160002060040160009054906101000a900460ff16611c60576040517f08c379a0000000000000000000000000000000000000000000000000000000008152600401611c5790612bc3565b60405180910390fd5b6001600360008373ffffffffffffffffffffffffffffffffffffffff1673ffffffffffffffffffffffffffffffffffffffff16815260200190815260200160002060006101000a81548160ff021916908315150217905550600660008273ffffffffffffffffffffffffffffffffffffffff1673ffffffffffffffffffffffffffffffffffffffff16815260200190815260200160002060008082016000611d089190611e3e565b600182016000611d189190611e3e565b600282016000611d289190611e3e565b600382016000611d389190611e3e565b6004820160006101000a81549060ff021916905550508073ffffffffffffffffffffffffffffffffffffffff167fb6be2187d059cc2a55fe29e0e503b566e1e0f8c8780096e185429350acffd3dd60405160405180910390a250565b60008054906101000a900473ffffffffffffffffffffffffffffffffffffffff1681565b828054611dc4906128f3565b90600052602060002090601f016020900481019282611de65760008555611e2d565b82601f10611dff57805160ff1916838001178555611e2d565b82800160010185558215611e2d579182015b82811115611e2c578251825591602001919060010190611e11565b5b509050611e3a9190611e7e565b5090565b508054611e4a906128f3565b6000825580601f10611e5c5750611e7b565b601f016020900490600052602060002090810190611e7a9190611e7e565b5b50565b5b80821115611e97576000816000905550600101611e7f565b5090565b6000604051905090565b600080fd5b600080fd5b6000819050919050565b611ec281611eaf565b8114611ecd57600080fd5b50565b600081359050611edf81611eb9565b92915050565b600060208284031215611efb57611efa611ea5565b5b6000611f0984828501611ed0565b91505092915050565b600073ffffffffffffffffffffffffffffffffffffffff82169050919050565b6000611f3d82611f12565b9050919050565b611f4d81611f32565b8114611f5857600080fd5b50565b600081359050611f6a81611f44565b92915050565b600060208284031215611f8657611f85611ea5565b5b6000611f9484828501611f5b565b91505092915050565b60008115159050919050565b611fb281611f9d565b82525050565b6000602082019050611fcd6000830184611fa9565b92915050565b60038110611fe057600080fd5b50565b600081359050611ff281611fd3565b92915050565b60006020828403121561200e5761200d611ea5565b5b600061201c84828501611fe3565b91505092915050565b600081519050919050565b600082825260208201905092915050565b60005b8381101561205f578082015181840152602081019050612044565b8381111561206e576000848401525b50505050565b6000601f19601f8301169050919050565b600061209082612025565b61209a8185612030565b93506120aa818560208601612041565b6120b381612074565b840191505092915050565b6120c781611eaf565b82525050565b600060a08201905081810360008301526120e78188612085565b905081810360208301526120fb8187612085565b905061210a60408301866120be565b818103606083015261211c8185612085565b905061212b6080830184611fa9565b9695505050505050565b600080fd5b600080fd5b7f4e487b7100000000000000000000000000000000000000000000000000000000600052604160045260246000fd5b61217782612074565b810181811067ffffffffffffffff821117156121965761219561213f565b5b80604052505050565b60006121a9611e9b565b90506121b5828261216e565b919050565b600067ffffffffffffffff8211156121d5576121d461213f565b5b6121de82612074565b9050602081019050919050565b82818337600083830152505050565b600061220d612208846121ba565b61219f565b9050828152602081018484840111156122295761222861213a565b5b6122348482856121eb565b509392505050565b600082601f83011261225157612250612135565b5b81356122618482602086016121fa565b91505092915050565b6000806000806080858703121561228457612283611ea5565b5b600085013567ffffffffffffffff8111156122a2576122a1611eaa565b5b6122ae8782880161223c565b945050602085013567ffffffffffffffff8111156122cf576122ce611eaa565b5b6122db8782880161223c565b93505060406122ec87828801611ed0565b925050606085013567ffffffffffffffff81111561230d5761230c611eaa565b5b6123198782880161223c565b91505092959194509250565b600060808201905061233a60008301876120be565b818103602083015261234c8186612085565b905081810360408301526123608185612085565b905061236f60608301846120be565b95945050505050565b600060208201905061238d60008301846120be565b92915050565b600080600080608085870312156123ad576123ac611ea5565b5b600085013567ffffffffffffffff8111156123cb576123ca611eaa565b5b6123d78782880161223c565b945050602085013567ffffffffffffffff8111156123f8576123f7611eaa565b5b6124048782880161223c565b935050604085013567ffffffffffffffff81111561242557612424611eaa565b5b6124318782880161223c565b925050606085013567ffffffffffffffff81111561245257612451611eaa565b5b61245e8782880161223c565b91505092959194509250565b7f4e487b7100000000000000000000000000000000000000000000000000000000600052602160045260246000fd5b600381106124aa576124a961246a565b5b50565b60008190506124bb82612499565b919050565b60006124cb826124ad565b9050919050565b6124db816124c0565b82525050565b60006020820190506124f660008301846124d2565b92915050565b600060a08201905081810360008301526125168188612085565b9050818103602083015261252a8187612085565b9050818103604083015261253e8186612085565b905081810360608301526125528185612085565b90506125616080830184611fa9565b9695505050505050565b600060c08201905061258060008301896120be565b81810360208301526125928188612085565b90506125a160408301876120be565b81810360608301526125b38186612085565b90506125c260808301856120be565b81810360a08301526125d48184612085565b9050979650505050505050565b6125ea81611f32565b82525050565b600060208201905061260560008301846125e1565b92915050565b7f496e76616c696420706861736520666f72207468697320616374696f6e000000600082015250565b6000612641601d83612030565b915061264c8261260b565b602082019050919050565b6000602082019050818103600083015261267081612634565b9050919050565b7f596f7520617265206e6f74207265676973746572656420746f20766f74650000600082015250565b60006126ad601e83612030565b91506126b882612677565b602082019050919050565b600060208201905081810360008301526126dc816126a0565b9050919050565b7f596f75206861766520616c726561647920766f74656400000000000000000000600082015250565b6000612719601683612030565b9150612724826126e3565b602082019050919050565b600060208201905081810360008301526127488161270c565b9050919050565b7f496e76616c69642063616e646964617465000000000000000000000000000000600082015250565b6000612785601183612030565b91506127908261274f565b602082019050919050565b600060208201905081810360008301526127b481612778565b9050919050565b7f4e487b7100000000000000000000000000000000000000000000000000000000600052601160045260246000fd5b60006127f582611eaf565b91507fffffffffffffffffffffffffffffffffffffffffffffffffffffffffffffffff8203612827576128266127bb565b5b600182019050919050565b7f4f6e6c792061646d696e2063616e20706572666f726d2074686973206163746960008201527f6f6e000000000000000000000000000000000000000000000000000000000000602082015250565b600061288e602283612030565b915061289982612832565b604082019050919050565b600060208201905081810360008301526128bd81612881565b9050919050565b7f4e487b7100000000000000000000000000000000000000000000000000000000600052602260045260246000fd5b6000600282049050600182168061290b57607f821691505b60208210810361291e5761291d6128c4565b5b50919050565b7f416c726561647920726571756573746564000000000000000000000000000000600082015250565b600061295a601183612030565b915061296582612924565b602082019050919050565b600060208201905081810360008301526129898161294d565b9050919050565b600060408201905081810360008301526129aa8185612085565b905081810360208301526129be8184612085565b90509392505050565b7f4e6f20766f7465732068617665206265656e2063617374207965740000000000600082015250565b60006129fd601b83612030565b9150612a08826129c7565b602082019050919050565b60006020820190508181036000830152612a2c816129f0565b9050919050565b7f496e76616c69642063616e646964617465204944000000000000000000000000600082015250565b6000612a69601483612030565b9150612a7482612a33565b602082019050919050565b60006020820190508181036000830152612a9881612a5c565b9050919050565b7f416c726561647920726567697374657265640000000000000000000000000000600082015250565b6000612ad5601283612030565b9150612ae082612a9f565b602082019050919050565b60006020820190508181036000830152612b0481612ac8565b9050919050565b7f5265717565737420616c72656164792073656e74000000000000000000000000600082015250565b6000612b41601483612030565b9150612b4c82612b0b565b602082019050919050565b60006020820190508181036000830152612b7081612b34565b9050919050565b7f4e6f207265717565737420666f756e6400000000000000000000000000000000600082015250565b6000612bad601083612030565b9150612bb882612b77565b602082019050919050565b60006020820190508181036000830152612bdc81612ba0565b905091905056fea2646970667358221220b836d24860965e955ef5547725e7f725cddee57b8ff6c0abd7850274a06777ab64736f6c634300080d0033",
  "immutableReferences": {},
  "source": "pragma solidity 0.8.13;\n\ncontract Election {\n    struct Contestant {\n        uint id;\n        string name;\n        uint voteCount;\n        string party;\n        uint age;\n        string qualification;\n    }\n\n    struct VoterRequest {\n        string voterId;\n        string phoneNumber;\n        string name;\n        string aadhaarNumber;\n        bool exists;\n    }\n\n    address public admin;\n    uint public contestantsCount;\n    \n    mapping(uint => Contestant) public contestants;\n    mapping(address => bool) public registeredVoters;\n    mapping(address => bool) public hasVoted;\n    mapping(address => uint) public votes;\n    \n    mapping(address => VoterRequest) public pendingVoterRequests;\n    mapping(address => ContestantRequest) public pendingContestants;\n\n    struct ContestantRequest {\n        string name;\n        string party;\n        uint age;\n        string qualification;\n        bool exists;\n    }\n\n    enum PHASE { REGISTRATION, VOTING, ENDED }\n    PHASE public state;\n\n    event ContestantAdded(uint indexed id, string name, string party);\n    event ContestantRequested(address indexed requester, string name, string party);\n    event VoterRequested(address indexed requester, string name, string voterId);\n    event VoterRegistered(address indexed voter);\n    event VoteCasted(address indexed voter, uint indexed contestantId);\n    event PhaseChanged(PHASE newPhase);\n\n    modifier onlyAdmin() {\n        require(msg.sender == admin, \"Only admin can perform this action\");\n        _;\n    }\n\n    modifier validState(PHASE requiredState) {\n        require(state == requiredState, \"Invalid phase for this action\");\n        _;\n    }\n\n    constructor() {\n        admin = msg.sender;\n        state = PHASE.REGISTRATION;\n    }\n\n    function changeState(PHASE newState) public onlyAdmin {\n        state = newState;\n        emit PhaseChanged(newState);\n    }\n\n    // Request to become a contestant\n    function requestToContest(string memory _name, string memory _party, uint _age, string memory _qualification) public {\n        require(!pendingContestants[msg.sender].exists, \"Already requested\");\n        \n        pendingContestants[msg.sender] = ContestantRequest(_name, _party, _age, _qualification, true);\n        emit ContestantRequested(msg.sender, _name, _party);\n    }\n\n    // Approve contestant request\n    function approveContestant(address contestantAddress) public onlyAdmin validState(PHASE.REGISTRATION) {\n        require(pendingContestants[contestantAddress].exists, \"No request found\");\n\n        contestantsCount++;\n        ContestantRequest memory req = pendingContestants[contestantAddress];\n\n        contestants[contestantsCount] = Contestant(contestantsCount, req.name, 0, req.party, req.age, req.qualification);\n        delete pendingContestants[contestantAddress];\n\n        emit ContestantAdded(contestantsCount, req.name, req.party);\n    }\n\n    // Request voter registration with details\n    function requestVoterRegistration(string memory _voterId, string memory _phoneNumber, string memory _name, string memory _aadhaarNumber) public {\n        require(!registeredVoters[msg.sender], \"Already registered\");\n        require(!pendingVoterRequests[msg.sender].exists, \"Request already sent\");\n\n        pendingVoterRequests[msg.sender] = VoterRequest(_voterId, _phoneNumber, _name, _aadhaarNumber, true);\n        emit VoterRequested(msg.sender, _name, _voterId);\n    }\n\n    // Approve voter registration\n    function approveVoterRegistration(address voter) public onlyAdmin {\n        require(pendingVoterRequests[voter].exists, \"No request found\");\n        \n        registeredVoters[voter] = true;\n        delete pendingVoterRequests[voter];\n\n        emit VoterRegistered(voter);\n    }\n\n    function vote(uint _contestantId) public validState(PHASE.VOTING) {\n        require(registeredVoters[msg.sender], \"You are not registered to vote\");\n        require(!hasVoted[msg.sender], \"You have already voted\");\n        require(_contestantId > 0 && _contestantId <= contestantsCount, \"Invalid candidate\");\n\n        contestants[_contestantId].voteCount++;\n        hasVoted[msg.sender] = true;\n        votes[msg.sender] = _contestantId;\n        emit VoteCasted(msg.sender, _contestantId);\n    }\n\n    function getVoteCount(uint _contestantId) public view validState(PHASE.ENDED) returns (uint) {\n        require(_contestantId > 0 && _contestantId <= contestantsCount, \"Invalid candidate ID\");\n        return contestants[_contestantId].voteCount;\n    }\n\n    function getWinner() public view validState(PHASE.ENDED) returns (uint, string memory, string memory, uint) {\n        uint maxVotes = 0;\n        uint winnerId;\n        for (uint i = 1; i <= contestantsCount; i++) {\n            if (contestants[i].voteCount > maxVotes) {\n                maxVotes = contestants[i].voteCount;\n                winnerId = i;\n            }\n        }\n        require(maxVotes > 0, \"No votes have been cast yet\"); \n        return (\n            contestants[winnerId].id,\n            contestants[winnerId].name,\n            contestants[winnerId].party,\n            contestants[winnerId].voteCount\n        );\n    }\n}\n",
  "sourcePath": "/Users/adityaghamat/Desktop/ongoing/dapps/contract/contracts/Election.sol",
  "compiler": {
    "name": "solc",
    "version": "0.8.13+commit.abaa5c0e.Emscripten.clang"
  },
  "schemaVersion": "3.4.10",
  "updatedAt": "2025-02-24T14:17:57.900Z",
  "networkType": "ethereum",
  "devdoc": {
    "kind": "dev",
    "methods": {},
    "version": 1
  },
  "userdoc": {
    "kind": "user",
    "methods": {},
    "version": 1
  }
}